{
  "contractName": "InfoContract",
  "abi": [
    {
      "constant": true,
      "inputs": [],
      "name": "name",
      "outputs": [
        {
          "name": "",
          "type": "string"
        }
      ],
      "payable": false,
      "stateMutability": "view",
      "type": "function"
    },
    {
      "constant": true,
      "inputs": [
        {
          "name": "",
          "type": "address"
        }
      ],
      "name": "balances",
      "outputs": [
        {
          "name": "",
          "type": "uint256"
        }
      ],
      "payable": false,
      "stateMutability": "view",
      "type": "function"
    },
    {
      "constant": true,
      "inputs": [],
      "name": "decimals",
      "outputs": [
        {
          "name": "",
          "type": "uint8"
        }
      ],
      "payable": false,
      "stateMutability": "view",
      "type": "function"
    },
    {
      "constant": true,
      "inputs": [],
      "name": "initialSupply",
      "outputs": [
        {
          "name": "",
          "type": "uint256"
        }
      ],
      "payable": false,
      "stateMutability": "view",
      "type": "function"
    },
    {
      "constant": true,
      "inputs": [],
      "name": "symbol",
      "outputs": [
        {
          "name": "",
          "type": "string"
        }
      ],
      "payable": false,
      "stateMutability": "view",
      "type": "function"
    },
    {
      "inputs": [],
      "payable": false,
      "stateMutability": "nonpayable",
      "type": "constructor"
    },
    {
      "anonymous": false,
      "inputs": [
        {
          "indexed": false,
          "name": "buyer",
          "type": "address"
        },
        {
          "indexed": false,
          "name": "eggname",
          "type": "string"
        },
        {
          "indexed": false,
          "name": "num",
          "type": "uint256"
        }
      ],
      "name": "_eggBuy",
      "type": "event"
    },
    {
      "anonymous": false,
      "inputs": [
        {
          "indexed": true,
          "name": "from",
          "type": "address"
        },
        {
          "indexed": true,
          "name": "to",
          "type": "address"
        },
        {
          "indexed": false,
          "name": "value",
          "type": "uint256"
        }
      ],
      "name": "Transfer",
      "type": "event"
    },
    {
      "anonymous": false,
      "inputs": [
        {
          "indexed": true,
          "name": "owner",
          "type": "address"
        },
        {
          "indexed": true,
          "name": "spender",
          "type": "address"
        },
        {
          "indexed": false,
          "name": "value",
          "type": "uint256"
        }
      ],
      "name": "Approval",
      "type": "event"
    },
    {
      "constant": true,
      "inputs": [],
      "name": "getName",
      "outputs": [
        {
          "name": "",
          "type": "string"
        }
      ],
      "payable": false,
      "stateMutability": "view",
      "type": "function"
    },
    {
      "constant": true,
      "inputs": [],
      "name": "getSymbol",
      "outputs": [
        {
          "name": "",
          "type": "string"
        }
      ],
      "payable": false,
      "stateMutability": "view",
      "type": "function"
    },
    {
      "constant": true,
      "inputs": [],
      "name": "getDecimals",
      "outputs": [
        {
          "name": "",
          "type": "uint8"
        }
      ],
      "payable": false,
      "stateMutability": "view",
      "type": "function"
    },
    {
      "constant": true,
      "inputs": [],
      "name": "getTotalSupply",
      "outputs": [
        {
          "name": "",
          "type": "uint256"
        }
      ],
      "payable": false,
      "stateMutability": "view",
      "type": "function"
    },
    {
      "constant": true,
      "inputs": [],
      "name": "totalSupply",
      "outputs": [
        {
          "name": "",
          "type": "uint256"
        }
      ],
      "payable": false,
      "stateMutability": "view",
      "type": "function"
    },
    {
      "constant": true,
      "inputs": [
        {
          "name": "_owner",
          "type": "address"
        }
      ],
      "name": "balanceOf",
      "outputs": [
        {
          "name": "",
          "type": "uint256"
        }
      ],
      "payable": false,
      "stateMutability": "view",
      "type": "function"
    },
    {
      "constant": false,
      "inputs": [
        {
          "name": "_to",
          "type": "address"
        },
        {
          "name": "_value",
          "type": "uint256"
        }
      ],
      "name": "transfer",
      "outputs": [
        {
          "name": "success",
          "type": "bool"
        }
      ],
      "payable": false,
      "stateMutability": "nonpayable",
      "type": "function"
    },
    {
      "constant": false,
      "inputs": [
        {
          "name": "_spender",
          "type": "address"
        },
        {
          "name": "_value",
          "type": "uint256"
        }
      ],
      "name": "approve",
      "outputs": [
        {
          "name": "success",
          "type": "bool"
        }
      ],
      "payable": false,
      "stateMutability": "nonpayable",
      "type": "function"
    },
    {
      "constant": true,
      "inputs": [
        {
          "name": "_owner",
          "type": "address"
        },
        {
          "name": "_spender",
          "type": "address"
        }
      ],
      "name": "allowance",
      "outputs": [
        {
          "name": "",
          "type": "uint256"
        }
      ],
      "payable": false,
      "stateMutability": "view",
      "type": "function"
    },
    {
      "constant": false,
      "inputs": [
        {
          "name": "_from",
          "type": "address"
        },
        {
          "name": "_to",
          "type": "address"
        },
        {
          "name": "_value",
          "type": "uint256"
        }
      ],
      "name": "transferFrom",
      "outputs": [
        {
          "name": "success",
          "type": "bool"
        }
      ],
      "payable": false,
      "stateMutability": "nonpayable",
      "type": "function"
    },
    {
      "constant": false,
      "inputs": [
        {
          "name": "eggname",
          "type": "string"
        },
        {
          "name": "num",
          "type": "uint256"
        }
      ],
      "name": "_buyEgg",
      "outputs": [
        {
          "name": "",
          "type": "bool"
        }
      ],
      "payable": false,
      "stateMutability": "nonpayable",
      "type": "function"
    },
    {
      "constant": false,
      "inputs": [
        {
          "name": "name",
          "type": "string"
        },
        {
          "name": "price",
          "type": "uint256"
        },
        {
          "name": "number",
          "type": "uint256"
        }
      ],
      "name": "_updateEgg",
      "outputs": [
        {
          "name": "",
          "type": "bool"
        }
      ],
      "payable": false,
      "stateMutability": "nonpayable",
      "type": "function"
    },
    {
      "constant": true,
      "inputs": [
        {
          "name": "eggna",
          "type": "string"
        }
      ],
      "name": "calEggNum",
      "outputs": [
        {
          "name": "",
          "type": "uint256"
        }
      ],
      "payable": false,
      "stateMutability": "view",
      "type": "function"
    },
    {
      "constant": true,
      "inputs": [
        {
          "name": "eggna1",
          "type": "string"
        }
      ],
      "name": "calEggPrice",
      "outputs": [
        {
          "name": "",
          "type": "uint256"
        }
      ],
      "payable": false,
      "stateMutability": "view",
      "type": "function"
    },
    {
      "constant": true,
      "inputs": [
        {
          "name": "add",
          "type": "address"
        }
      ],
      "name": "getAllBuyerEgg",
      "outputs": [
        {
          "name": "eggnames",
          "type": "string[]"
        },
        {
          "name": "eggnumbers",
          "type": "uint256[]"
        }
      ],
      "payable": false,
      "stateMutability": "view",
      "type": "function"
    }
  ],
  "bytecode": "0x60806040526040805190810160405280600981526020017f59616e674a6944616e0000000000000000000000000000000000000000000000815250600690805190602001906200005192919062000a8a565b506040805190810160405280600781526020017f54754a6944616e00000000000000000000000000000000000000000000000000815250600790805190602001906200009f92919062000a8a565b506040805190810160405280600881526020017f57754a756e44616e00000000000000000000000000000000000000000000000081525060089080519060200190620000ed92919062000a8a565b506040805190810160405280600681526020017f4d616f44616e0000000000000000000000000000000000000000000000000000815250600990805190602001906200013b92919062000a8a565b506040805190810160405280600781526020017f4875616944616e00000000000000000000000000000000000000000000000000815250600a90805190602001906200018992919062000a8a565b5060a06040519081016040528060068054600181600116156101000203166002900480601f016020809104026020016040519081016040528092919081815260200182805460018160011615610100020316600290048015620002305780601f10620002045761010080835404028352916020019162000230565b820191906000526020600020905b8154815290600101906020018083116200021257829003601f168201915b5050505050815260200160078054600181600116156101000203166002900480601f016020809104026020016040519081016040528092919081815260200182805460018160011615610100020316600290048015620002d45780601f10620002a857610100808354040283529160200191620002d4565b820191906000526020600020905b815481529060010190602001808311620002b657829003601f168201915b5050505050815260200160088054600181600116156101000203166002900480601f016020809104026020016040519081016040528092919081815260200182805460018160011615610100020316600290048015620003785780601f106200034c5761010080835404028352916020019162000378565b820191906000526020600020905b8154815290600101906020018083116200035a57829003601f168201915b5050505050815260200160098054600181600116156101000203166002900480601f0160208091040260200160405190810160405280929190818152602001828054600181600116156101000203166002900480156200041c5780601f10620003f0576101008083540402835291602001916200041c565b820191906000526020600020905b815481529060010190602001808311620003fe57829003601f168201915b50505050508152602001600a8054600181600116156101000203166002900480601f016020809104026020016040519081016040528092919081815260200182805460018160011615610100020316600290048015620004c05780601f106200049457610100808354040283529160200191620004c0565b820191906000526020600020905b815481529060010190602001808311620004a257829003601f168201915b5050505050815250600b906005620004da92919062000b11565b50348015620004e857600080fd5b50601260ff16600a0a620f4240026000803373ffffffffffffffffffffffffffffffffffffffff1673ffffffffffffffffffffffffffffffffffffffff168152602001908152602001600020819055503373ffffffffffffffffffffffffffffffffffffffff16600073ffffffffffffffffffffffffffffffffffffffff167fddf252ad1be2c89b69c2b068fc378daa952ba7f163c4a11628f55a4df523b3ef601260ff16600a0a620f424002604051620005a4919062000cb5565b60405180910390a36064600260066040518082805460018160011615610100020316600290048015620006115780601f10620005ee57610100808354040283529182019162000611565b820191906000526020600020905b815481529060010190602001808311620005fc575b505091505090815260200160405180910390208190555060646002600760405180828054600181600116156101000203166002900480156200068d5780601f106200066a5761010080835404028352918201916200068d565b820191906000526020600020905b81548152906001019060200180831162000678575b50509150509081526020016040518091039020819055506064600260086040518082805460018160011615610100020316600290048015620007095780601f10620006e657610100808354040283529182019162000709565b820191906000526020600020905b815481529060010190602001808311620006f4575b50509150509081526020016040518091039020819055506064600260096040518082805460018160011615610100020316600290048015620007855780601f106200076257610100808354040283529182019162000785565b820191906000526020600020905b81548152906001019060200180831162000770575b505091505090815260200160405180910390208190555060646002600a6040518082805460018160011615610100020316600290048015620008015780601f10620007de57610100808354040283529182019162000801565b820191906000526020600020905b815481529060010190602001808311620007ec575b5050915050908152602001604051809103902081905550600a6003600660405180828054600181600116156101000203166002900480156200087d5780601f106200085a5761010080835404028352918201916200087d565b820191906000526020600020905b81548152906001019060200180831162000868575b50509150509081526020016040518091039020819055506014600360076040518082805460018160011615610100020316600290048015620008f95780601f10620008d6576101008083540402835291820191620008f9565b820191906000526020600020905b815481529060010190602001808311620008e4575b5050915050908152602001604051809103902081905550601e600360086040518082805460018160011615610100020316600290048015620009755780601f106200095257610100808354040283529182019162000975565b820191906000526020600020905b81548152906001019060200180831162000960575b5050915050908152602001604051809103902081905550600f600360096040518082805460018160011615610100020316600290048015620009f15780601f10620009ce576101008083540402835291820191620009f1565b820191906000526020600020905b815481529060010190602001808311620009dc575b5050915050908152602001604051809103902081905550600c6003600a604051808280546001816001161561010002031660029004801562000a6d5780601f1062000a4a57610100808354040283529182019162000a6d565b820191906000526020600020905b81548152906001019060200180831162000a58575b505091505090815260200160405180910390208190555062000cdc565b828054600181600116156101000203166002900490600052602060002090601f016020900481019282601f1062000acd57805160ff191683800117855562000afe565b8280016001018555821562000afe579182015b8281111562000afd57825182559160200191906001019062000ae0565b5b50905062000b0d919062000b78565b5090565b82805482825590600052602060002090810192821562000b65579160200282015b8281111562000b6457825182908051906020019062000b5392919062000ba0565b509160200191906001019062000b32565b5b50905062000b74919062000c27565b5090565b62000b9d91905b8082111562000b9957600081600090555060010162000b7f565b5090565b90565b828054600181600116156101000203166002900490600052602060002090601f016020900481019282601f1062000be357805160ff191683800117855562000c14565b8280016001018555821562000c14579182015b8281111562000c1357825182559160200191906001019062000bf6565b5b50905062000c23919062000b78565b5090565b62000c5591905b8082111562000c51576000818162000c47919062000c58565b5060010162000c2e565b5090565b90565b50805460018160011615610100020316600290046000825580601f1062000c80575062000ca1565b601f01602090049060005260206000209081019062000ca0919062000b78565b5b50565b62000caf8162000cd2565b82525050565b600060208201905062000ccc600083018462000ca4565b92915050565b6000819050919050565b611e968062000cec6000396000f3fe608060405260043610610112576000357c0100000000000000000000000000000000000000000000000000000000900463ffffffff16806306fdde0314610117578063095ea7b314610142578063150704011461017f57806317d7de7c146101aa57806318160ddd146101d557806323b872dd1461020057806327e235e31461023d578063313ce5671461027a578063378dc3dc146102a55780636d99193b146102d057806370a082311461030d57806395d89b411461034a578063a9059cbb14610375578063c04bb37f146103b2578063c4e41b22146103f0578063cab0bf691461041b578063ccce88b414610458578063dd62ed3e14610495578063f0141d84146104d2578063f8dbf48d146104fd575b600080fd5b34801561012357600080fd5b5061012c61053a565b6040516101399190611c41565b60405180910390f35b34801561014e57600080fd5b5061016960048036036101649190810190611908565b610573565b6040516101769190611c26565b60405180910390f35b34801561018b57600080fd5b50610194610665565b6040516101a19190611c63565b60405180910390f35b3480156101b657600080fd5b506101bf6106a2565b6040516101cc9190611c63565b60405180910390f35b3480156101e157600080fd5b506101ea6106df565b6040516101f79190611c85565b60405180910390f35b34801561020c57600080fd5b50610227600480360361022291908101906118b9565b6106f3565b6040516102349190611c26565b60405180910390f35b34801561024957600080fd5b50610264600480360361025f9190810190611854565b610968565b6040516102719190611c85565b60405180910390f35b34801561028657600080fd5b5061028f610980565b60405161029c9190611ca0565b60405180910390f35b3480156102b157600080fd5b506102ba610985565b6040516102c79190611c85565b60405180910390f35b3480156102dc57600080fd5b506102f760048036036102f291908101906119d9565b610995565b6040516103049190611c26565b60405180910390f35b34801561031957600080fd5b50610334600480360361032f9190810190611854565b610ad0565b6040516103419190611c85565b60405180910390f35b34801561035657600080fd5b5061035f610b18565b60405161036c9190611c41565b60405180910390f35b34801561038157600080fd5b5061039c60048036036103979190810190611908565b610b51565b6040516103a99190611c26565b60405180910390f35b3480156103be57600080fd5b506103d960048036036103d49190810190611854565b610cb3565b6040516103e7929190611bef565b60405180910390f35b3480156103fc57600080fd5b506104056111b5565b6040516104129190611c85565b60405180910390f35b34801561042757600080fd5b50610442600480360361043d9190810190611944565b6111c9565b60405161044f9190611c85565b60405180910390f35b34801561046457600080fd5b5061047f600480360361047a9190810190611985565b61123e565b60405161048c9190611c26565b60405180910390f35b3480156104a157600080fd5b506104bc60048036036104b7919081019061187d565b61162c565b6040516104c99190611c85565b60405180910390f35b3480156104de57600080fd5b506104e76116b3565b6040516104f49190611ca0565b60405180910390f35b34801561050957600080fd5b50610524600480360361051f9190810190611944565b6116bc565b6040516105319190611c85565b60405180910390f35b6040805190810160405280601e81526020017f594854204469676974616c20436f6c6c65637469626c6520506f696e7473000081525081565b600081600160003373ffffffffffffffffffffffffffffffffffffffff1673ffffffffffffffffffffffffffffffffffffffff16815260200190815260200160002060008573ffffffffffffffffffffffffffffffffffffffff1673ffffffffffffffffffffffffffffffffffffffff168152602001908152602001600020819055508273ffffffffffffffffffffffffffffffffffffffff163373ffffffffffffffffffffffffffffffffffffffff167f8c5be1e5ebec7d5bd14f71427d1e84f3dd0314c0f7b2291e5b200ac8c7c3b925846040516106539190611c85565b60405180910390a36001905092915050565b60606040805190810160405280600681526020017f5948544443500000000000000000000000000000000000000000000000000000815250905090565b60606040805190810160405280601e81526020017f594854204469676974616c20436f6c6c65637469626c6520506f696e74730000815250905090565b6000601260ff16600a0a620f424002905090565b6000816000808673ffffffffffffffffffffffffffffffffffffffff1673ffffffffffffffffffffffffffffffffffffffff16815260200190815260200160002054101580156107bf575081600160008673ffffffffffffffffffffffffffffffffffffffff1673ffffffffffffffffffffffffffffffffffffffff16815260200190815260200160002060003373ffffffffffffffffffffffffffffffffffffffff1673ffffffffffffffffffffffffffffffffffffffff1681526020019081526020016000205410155b80156107cb5750600082115b15156107d657600080fd5b816000808673ffffffffffffffffffffffffffffffffffffffff1673ffffffffffffffffffffffffffffffffffffffff1681526020019081526020016000206000828254039250508190555081600160008673ffffffffffffffffffffffffffffffffffffffff1673ffffffffffffffffffffffffffffffffffffffff16815260200190815260200160002060003373ffffffffffffffffffffffffffffffffffffffff1673ffffffffffffffffffffffffffffffffffffffff16815260200190815260200160002060008282540392505081905550816000808573ffffffffffffffffffffffffffffffffffffffff1673ffffffffffffffffffffffffffffffffffffffff168152602001908152602001600020600082825401925050819055508273ffffffffffffffffffffffffffffffffffffffff168473ffffffffffffffffffffffffffffffffffffffff167fddf252ad1be2c89b69c2b068fc378daa952ba7f163c4a11628f55a4df523b3ef846040516109559190611c85565b60405180910390a3600190509392505050565b60006020528060005260406000206000915090505481565b601281565b601260ff16600a0a620f42400281565b6000736b1bb5f44496fab190a1e51cb65c78031bcdbb0573ffffffffffffffffffffffffffffffffffffffff163373ffffffffffffffffffffffffffffffffffffffff161415156109e557600080fd5b826003856040518082805190602001908083835b602083101515610a1e57805182526020820191506020810190506020830392506109f9565b6001836020036101000a038019825116818451168082178552505050505050905001915050908152602001604051809103902081905550816002856040518082805190602001908083835b602083101515610a8e5780518252602082019150602081019050602083039250610a69565b6001836020036101000a038019825116818451168082178552505050505050905001915050908152602001604051809103902081905550600190509392505050565b60008060008373ffffffffffffffffffffffffffffffffffffffff1673ffffffffffffffffffffffffffffffffffffffff168152602001908152602001600020549050919050565b6040805190810160405280600681526020017f594854444350000000000000000000000000000000000000000000000000000081525081565b6000816000803373ffffffffffffffffffffffffffffffffffffffff1673ffffffffffffffffffffffffffffffffffffffff1681526020019081526020016000205410158015610ba15750600082115b1515610bac57600080fd5b816000803373ffffffffffffffffffffffffffffffffffffffff1673ffffffffffffffffffffffffffffffffffffffff16815260200190815260200160002060008282540392505081905550816000808573ffffffffffffffffffffffffffffffffffffffff1673ffffffffffffffffffffffffffffffffffffffff168152602001908152602001600020600082825401925050819055508273ffffffffffffffffffffffffffffffffffffffff163373ffffffffffffffffffffffffffffffffffffffff167fddf252ad1be2c89b69c2b068fc378daa952ba7f163c4a11628f55a4df523b3ef84604051610ca19190611c85565b60405180910390a36001905092915050565b6060806060600460008573ffffffffffffffffffffffffffffffffffffffff1673ffffffffffffffffffffffffffffffffffffffff1681526020019081526020016000208054600181600116156101000203166002900480601f016020809104026020016040519081016040528092919081815260200182805460018160011615610100020316600290048015610d8b5780601f10610d6057610100808354040283529160200191610d8b565b820191906000526020600020905b815481529060010190602001808311610d6e57829003601f168201915b50505050509050600080905060008090505b600b80549050811015610e8f576000600560008873ffffffffffffffffffffffffffffffffffffffff1673ffffffffffffffffffffffffffffffffffffffff168152602001908152602001600020600b83815481101515610dfa57fe5b906000526020600020016040518082805460018160011615610100020316600290048015610e5f5780601f10610e3d576101008083540402835291820191610e5f565b820191906000526020600020905b815481529060010190602001808311610e4b575b50509150509081526020016040518091039020541115610e825781806001019250505b8080600101915050610d9d565b5080604051908082528060200260200182016040528015610ec457816020015b6060815260200190600190039081610eaf5790505b50935080604051908082528060200260200182016040528015610ef65781602001602082028038833980820191505090505b509250600080905060008090505b600b805490508110156111a6576000600560008973ffffffffffffffffffffffffffffffffffffffff1673ffffffffffffffffffffffffffffffffffffffff168152602001908152602001600020600b83815481101515610f6157fe5b906000526020600020016040518082805460018160011615610100020316600290048015610fc65780601f10610fa4576101008083540402835291820191610fc6565b820191906000526020600020905b815481529060010190602001808311610fb2575b5050915050908152602001604051809103902054111561119957600b81815481101515610fef57fe5b906000526020600020018054600181600116156101000203166002900480601f01602080910402602001604051908101604052809291908181526020018280546001816001161561010002031660029004801561108d5780601f106110625761010080835404028352916020019161108d565b820191906000526020600020905b81548152906001019060200180831161107057829003601f168201915b505050505086838151811015156110a057fe5b90602001906020020181905250600560008873ffffffffffffffffffffffffffffffffffffffff1673ffffffffffffffffffffffffffffffffffffffff168152602001908152602001600020600b828154811015156110fb57fe5b9060005260206000200160405180828054600181600116156101000203166002900480156111605780601f1061113e576101008083540402835291820191611160565b820191906000526020600020905b81548152906001019060200180831161114c575b5050915050908152602001604051809103902054858381518110151561118257fe5b906020019060200201818152505081806001019250505b8080600101915050610f04565b50848494509450505050915091565b6000601260ff16600a0a620f424002905090565b60006002826040518082805190602001908083835b60208310151561120357805182526020820191506020810190506020830392506111de565b6001836020036101000a0380198251168184511680821785525050505050509050019150509081526020016040518091039020549050919050565b6000816002846040518082805190602001908083835b6020831015156112795780518252602082019150602081019050602083039250611254565b6001836020036101000a038019825116818451168082178552505050505050905001915050908152602001604051809103902054101515156112ba57600080fd5b6003836040518082805190602001908083835b6020831015156112f257805182526020820191506020810190506020830392506112cd565b6001836020036101000a03801982511681845116808217855250505050505090500191505090815260200160405180910390205482026000803373ffffffffffffffffffffffffffffffffffffffff1673ffffffffffffffffffffffffffffffffffffffff168152602001908152602001600020541015151561137457600080fd5b6113ff736b1bb5f44496fab190a1e51cb65c78031bcdbb056003856040518082805190602001908083835b6020831015156113c4578051825260208201915060208101905060208303925061139f565b6001836020036101000a0380198251168184511680821785525050505050509050019150509081526020016040518091039020548402610b51565b50816002846040518082805190602001908083835b6020831015156114395780518252602082019150602081019050602083039250611414565b6001836020036101000a038019825116818451168082178552505050505050905001915050908152602001604051809103902054036002846040518082805190602001908083835b6020831015156114a65780518252602082019150602081019050602083039250611481565b6001836020036101000a03801982511681845116808217855250505050505090500191505090815260200160405180910390208190555082600460003373ffffffffffffffffffffffffffffffffffffffff1673ffffffffffffffffffffffffffffffffffffffff1681526020019081526020016000209080519060200190611530929190611731565b5081600560003373ffffffffffffffffffffffffffffffffffffffff1673ffffffffffffffffffffffffffffffffffffffff168152602001908152602001600020846040518082805190602001908083835b6020831015156115a75780518252602082019150602081019050602083039250611582565b6001836020036101000a0380198251168184511680821785525050505050509050019150509081526020016040518091039020600082825401925050819055507f565496e71c3fca3ef99a06256cb4003709d08a24bd0b5214cff874efe9b38a0d33848460405161161a93929190611bb1565b60405180910390a16001905092915050565b6000600160008473ffffffffffffffffffffffffffffffffffffffff1673ffffffffffffffffffffffffffffffffffffffff16815260200190815260200160002060008373ffffffffffffffffffffffffffffffffffffffff1673ffffffffffffffffffffffffffffffffffffffff16815260200190815260200160002054905092915050565b60006012905090565b60006003826040518082805190602001908083835b6020831015156116f657805182526020820191506020810190506020830392506116d1565b6001836020036101000a0380198251168184511680821785525050505050509050019150509081526020016040518091039020549050919050565b828054600181600116156101000203166002900490600052602060002090601f016020900481019282601f1061177257805160ff19168380011785556117a0565b828001600101855582156117a0579182015b8281111561179f578251825591602001919060010190611784565b5b5090506117ad91906117b1565b5090565b6117d391905b808211156117cf5760008160009055506001016117b7565b5090565b90565b60006117e28235611db7565b905092915050565b600082601f83011215156117fd57600080fd5b813561181061180b82611ce8565b611cbb565b9150808252602083016020830185838301111561182c57600080fd5b611837838284611e09565b50505092915050565b600061184c8235611dc9565b905092915050565b60006020828403121561186657600080fd5b6000611874848285016117d6565b91505092915050565b6000806040838503121561189057600080fd5b600061189e858286016117d6565b92505060206118af858286016117d6565b9150509250929050565b6000806000606084860312156118ce57600080fd5b60006118dc868287016117d6565b93505060206118ed868287016117d6565b92505060406118fe86828701611840565b9150509250925092565b6000806040838503121561191b57600080fd5b6000611929858286016117d6565b925050602061193a85828601611840565b9150509250929050565b60006020828403121561195657600080fd5b600082013567ffffffffffffffff81111561197057600080fd5b61197c848285016117ea565b91505092915050565b6000806040838503121561199857600080fd5b600083013567ffffffffffffffff8111156119b257600080fd5b6119be858286016117ea565b92505060206119cf85828601611840565b9150509250929050565b6000806000606084860312156119ee57600080fd5b600084013567ffffffffffffffff811115611a0857600080fd5b611a14868287016117ea565b9350506020611a2586828701611840565b9250506040611a3686828701611840565b9150509250925092565b611a4981611dd3565b82525050565b6000611a5a82611d2e565b80845260208401935083602082028501611a7385611d14565b60005b84811015611aac578383038852611a8e838351611b5d565b9250611a9982611d5a565b9150602088019750600181019050611a76565b508196508694505050505092915050565b6000611ac882611d39565b808452602084019350611ada83611d21565b60005b82811015611b0c57611af0868351611b93565b611af982611d67565b9150602086019550600181019050611add565b50849250505092915050565b611b2181611d74565b82525050565b6000611b3282611d4f565b808452611b46816020860160208601611e18565b611b4f81611e4b565b602085010191505092915050565b6000611b6882611d44565b808452611b7c816020860160208601611e18565b611b8581611e4b565b602085010191505092915050565b611b9c81611da0565b82525050565b611bab81611daa565b82525050565b6000606082019050611bc66000830186611a40565b8181036020830152611bd88185611b27565b9050611be76040830184611b93565b949350505050565b60006040820190508181036000830152611c098185611a4f565b90508181036020830152611c1d8184611abd565b90509392505050565b6000602082019050611c3b6000830184611b18565b92915050565b60006020820190508181036000830152611c5b8184611b5d565b905092915050565b60006020820190508181036000830152611c7d8184611b27565b905092915050565b6000602082019050611c9a6000830184611b93565b92915050565b6000602082019050611cb56000830184611ba2565b92915050565b6000604051905081810181811067ffffffffffffffff82111715611cde57600080fd5b8060405250919050565b600067ffffffffffffffff821115611cff57600080fd5b601f19601f8301169050602081019050919050565b6000602082019050919050565b6000602082019050919050565b600081519050919050565b600081519050919050565b600081519050919050565b600081519050919050565b6000602082019050919050565b6000602082019050919050565b60008115159050919050565b600073ffffffffffffffffffffffffffffffffffffffff82169050919050565b6000819050919050565b600060ff82169050919050565b6000611dc282611d80565b9050919050565b6000819050919050565b6000611dde82611de5565b9050919050565b6000611df082611df7565b9050919050565b6000611e0282611d80565b9050919050565b82818337600083830152505050565b60005b83811015611e36578082015181840152602081019050611e1b565b83811115611e45576000848401525b50505050565b6000601f19601f830116905091905056fea265627a7a7230582060db8a86cc2d56b77be48e65a3c368289f5bea89775397a537da77e05bd52b3e6c6578706572696d656e74616cf50037",
  "source": "pragma solidity ^0.5.0;\npragma experimental ABIEncoderV2;\ninterface IERC20 {\n    function totalSupply() external view returns (uint256);\n    function balanceOf(address account) external view returns (uint256);\n    function transfer(address recipient, uint256 amount) external returns (bool);\n    function allowance(address owner, address spender) external view returns (uint256);\n    function approve(address spender, uint256 amount) external returns (bool);\n    function transferFrom(address sender, address recipient, uint256 amount) external returns (bool);\n    event Transfer(address indexed from, address indexed to, uint256 value);\n    event Approval(address indexed owner, address indexed spender, uint256 value);\n}\n\ncontract InfoContract is IERC20 {\n    string public constant name = \"YHT Digital Collectible Points\";//\n    string public constant symbol = \"YHTDCP\";//\n    uint8 public constant decimals = 18;//\n    uint256 public  constant initialSupply = 1000000 * (10 ** uint256(decimals));//\n    mapping (address => uint256) public  balances;//\n    mapping (address => mapping (address => uint256)) private allowed;//\n\n    address constant OwnerEgg = 0x6B1BB5f44496fAB190a1E51CB65C78031BCDBB05;\n\n    mapping(string => uint) EggNN;// \n    mapping(string => uint) EggNP;// \n\n    mapping(address => string) BuyerName;//\n    mapping(address => mapping(string => uint)) BuyerEgg;//\n\n    event _eggBuy(address buyer,string eggname,uint num);//\n\n    string YangJiDan=\"YangJiDan\";\n    string TuJiDan = \"TuJiDan\";\n    string WuJunDan = \"WuJunDan\";\n    string MaoDan = \"MaoDan\";\n    string HuaiDan = \"HuaiDan\";\n\n    string[] EggNames = [YangJiDan, TuJiDan, WuJunDan, MaoDan, HuaiDan];\n\n\n    constructor() public {\n        balances[msg.sender] = initialSupply;\n        emit Transfer(address(0), msg.sender, initialSupply);\n\n        EggNN[YangJiDan]=100;\n        EggNN[TuJiDan]=100;\n        EggNN[WuJunDan]=100;\n        EggNN[MaoDan]=100;\n        EggNN[HuaiDan]=100;\n\n        EggNP[YangJiDan]=10;\n        EggNP[TuJiDan]=20;\n        EggNP[WuJunDan]=30;\n        EggNP[MaoDan]=15;\n        EggNP[HuaiDan]=12;\n    }\n    function getName() public view returns (string memory) {\n        return name;\n    }\n\n    function getSymbol() public view returns (string memory) {\n        return symbol;\n    }\n\n    function getDecimals() public view returns (uint8) {\n        return decimals;\n    }\n\n    function getTotalSupply() public view returns (uint256) {\n        return initialSupply;\n    }\n//\n    function totalSupply() public view returns (uint256) {\n        return initialSupply;\n    }\n//\n    function balanceOf(address _owner) public view returns (uint256) {\n        return balances[_owner];\n    }\n//\n    function transfer(address _to, uint256 _value) public returns (bool success) {\n        require(balances[msg.sender] >= _value && _value > 0);\n        balances[msg.sender] -= _value;\n        balances[_to] += _value;\n        emit Transfer(msg.sender, _to, _value);\n        return true;\n    }\n//\n    function approve(address _spender, uint256 _value) public returns (bool success) {\n        allowed[msg.sender][_spender] = _value;\n        emit Approval(msg.sender, _spender, _value);\n        return true;\n    }\n//\n    function allowance(address _owner, address _spender) public view returns (uint256) {\n        return allowed[_owner][_spender];\n    }\n//transferFrom  spender  owner\n    function transferFrom(address _from, address _to, uint256 _value) public returns (bool success) {\n        require(balances[_from] >= _value && allowed[_from][msg.sender] >= _value && _value > 0);\n        balances[_from] -= _value;\n        allowed[_from][msg.sender] -= _value;\n        balances[_to] += _value;\n        emit Transfer(_from, _to, _value);\n        return true;\n    }\n\n     //\n    function _buyEgg(string memory eggname,uint num) public  returns (bool){\n        require(EggNN[eggname]>=num);\n        require(balances[msg.sender]>=(num*EggNP[eggname]));\n        transfer(OwnerEgg,num*EggNP[eggname]);\n        EggNN[eggname]=EggNN[eggname]-num;\n        BuyerName[msg.sender]=eggname;\n        BuyerEgg[msg.sender][eggname] += num;\n        emit _eggBuy(msg.sender,eggname,num);\n        return true;\n    }\n\n    function _updateEgg(string memory name,uint price,uint number) public  returns (bool){\n        require(msg.sender==OwnerEgg);\n        EggNP[name]=price;\n        EggNN[name]=number;\n        return true;\n    }\n\n    //\n    function calEggNum(string memory eggna) public view returns (uint){\n        return EggNN[eggna];\n    }\n    //\n    function calEggPrice(string memory eggna1) public view returns (uint){\n        return EggNP[eggna1];\n    }\n    \n\n    //\n    function getAllBuyerEgg(address add) public view returns (string[] memory eggnames, uint[] memory eggnumbers) {\n        string memory buyerEggname = BuyerName[add];\n        uint eggCount = 0;\n        for (uint i = 0; i < EggNames.length; i++) {\n            if (BuyerEgg[add][EggNames[i]] > 0) {\n                eggCount++;\n            }\n        }\n        eggnames = new string[](eggCount);\n        eggnumbers = new uint[](eggCount);\n        uint index = 0;\n        for (uint i = 0; i < EggNames.length; i++) {\n            if (BuyerEgg[add][EggNames[i]] > 0) {\n                eggnames[index] = EggNames[i];\n                eggnumbers[index] = BuyerEgg[add][EggNames[i]];\n                index++;\n            }\n        }\n        return (eggnames, eggnumbers);\n    }\n\n}\n\n\n\n\n",
  "sourcePath": "E:///erc20_eggshop/contracts/InfoContract.sol",
  "compiler": {
    "name": "solc",
    "version": "0.5.0+commit.1d4f565a.Emscripten.clang"
  },
  "schemaVersion": "3.3.4",
  "updatedAt": "2023-04-25T08:51:41.619Z",
  "networkType": "ethereum",
  "devdoc": {
    "methods": {}
  },
  "userdoc": {
    "methods": {}
  }
}